:020000041000EA
:1000000000B5324B212058609868022188439860DF
:10001000D860186158612E4B002199600221596106
:100020000121F02299502B49196001219960352056
:1000300000F044F80222904214D00621196600F024
:1000400034F8196E01211966002018661A6600F04E
:100050002CF8196E196E196E052000F02FF8012189
:100060000842F9D1002199601B49196000215960AB
:100070001A491B48016001219960EB211966A021F2
:10008000196600F012F800219960164914480160C1
:100090000121996001BC002800D000471248134993
:1000A000086003C880F30888084703B5996A0420EC
:1000B0000142FBD001200142F8D103BD02B5186610
:1000C0001866FFF7F2FF186E186E02BD00000240BE
:1000D000000000180000070000035F00212200005C
:1000E000F4000018222000A00001001008ED00E03C
:1000F00000000000000000000000000074B24E7A12
:1001000000200420F7010010CB010010CD010010E9
:10011000C9010010C9010010C9010010C901001077
:10012000C9010010C9010010C9010010CF01001061
:10013000C9010010C9010010D1010010D301001045
:10014000C1010010C1010010C1010010C101001067
:10015000C1010010C1010010C1010010C101001057
:10016000C1010010C1010010C1010010C101001047
:10017000C1010010C1010010C1010010C101001037
:10018000C1010010C1010010C1010010C101001027
:10019000C1010010C1010010C1010010C101001017
:1001A000C1010010C1010010C1010010C101001007
:1001B000C1010010C1010010C1010010C1010010F7
:1001C000EFF30580103800BE00BE00BE00BE00BECA
:1001D00000BE00BEF2EB88717070001090700010CD
:1001E0003802001090A31AE700201E49086006C8D4
:1001F00081F3088810471C480068002801D00020BF
:10020000F3E70DA40ECC002902D000F012F8F9E7B4
:100210001649174A002000E001C19142FCD115495E
:100220008847154988471549884700BEFDE701C939
:1002300001C29A42FBD3704790700010C0000020AA
:100240004010002010800010000004200000042056
:100250001080001000100420001004200000000096
:100260007047000008ED00E0000000D040100020C2
:10027000641C0020BD3F00100D030010B53F0010AE
:1002800010B51E4882B004F015F81D4C25E0FA2286
:100290000023920001F01AFC03000122002120003B
:1002A0000092184A00F07AF8FA20C00000F0B8FF77
:1002B00001F070F800291AD0FA220023920001F010
:1002C00005FC030000222000009201210E4A00F0EC
:1002D00065F8FA20C00000F0A3FF01F05BF80029E8
:1002E000D5D1FA21890001F0B3FB0300D5E7FA214B
:1002F000890001F0ADFB0300E4E7C0465068001040
:10030000C81300203333733F8FC2F53D10B503F09F
:1003100081FF084800F084FF074803F0CBFF07483F
:1003200000F01EF8002801D0FFF7AAFF044803F0F0
:10033000C1FFF9E7DC05000084680010C813002045
:10034000C468001010B5024800F004F810BDC046A3
:10035000C813002000230370436083607047C046C9
:1003600070B50023D02480268025240603704360C6
:100370008360F6010E2000F0CFF82D0266620F2098
:1003800000F0CAF86562102000F0C6F880235B0216
:1003900063620120A6616561A36170BDF0B5D646B8
:1003A0004F464646C0B582B01D000AAB1B7804001C
:1003B000884691469A46002D02D08168A94236D8D7
:1003C0004B49484602F097F902F0CCF95346060033
:1003D0000F00002B23D04346002B20D1FD2148469F
:1003E000890502F0B7F900283CD1434663602370C9
:1003F000404932003B00404803F0E4FFD023802214
:100400001B06D2019A61802212025A618022520296
:100410009A6102B0E0BCBA46B146A846F0BD0023DE
:10042000636023704346012BE2D13449E1E70023A6
:1004300043600370324803F0C5FF2378002B4BD193
:10044000616800292DDC4346012B4FD0294C2849F7
:10045000484602F050F902F085F902000B002648E8
:100460002100C9E7616803220131616025480096D7
:10047000019703F0A7FF6168022917DD01232370AC
:10048000002D03D0204B9C466544A56000231F48E7
:10049000636003F00FFF2378002B0CD16168002903
:1004A000A6DD03221A4803F08DFFA7E74346237019
:1004B00000299DDDF5E732003B00164803F082FF7E
:1004C000D02380221B06D2015A61802212029A6137
:1004D000802252025A619CE70549484602F00BF916
:1004E00002F040F902000B000A48E7E7034CAEE7D0
:1004F0000000C842FC680010B8690010F4680010E1
:1005000004690010F0690010DC050000286A001082
:10051000906900104C6900100123D022834012061C
:1005200093629361094A83009A18116840225140EE
:1005300080320A400649C0008C4663441A60054B6D
:100540009C460523604443607047C04604C0014098
:1005500004D00140004001408023DB051868000FF3
:100560007047C0460FB400B5084883B003F0A2FE40
:10057000049B002B07D005A91800019103F0FEFC95
:10058000034803F097FE012003F010FD746A001089
:10059000EC69001070B5EFF3108C72B60D4D2B683E
:1005A000002BFCD0BFF35F8F0724CB08C618C05CBC
:1005B00001230C40A3401C000440034207D1184310
:1005C0003070BFF35F8F2C608CF3108870BD10000B
:1005D000FFF7C8FF2C0100D0F8B54746CE46884645
:1005E00080B5EFF3108C72B6214D2C68002CFCD036
:1005F000BFF35F8F9A422CD8D4080727055D0619F0
:1006000001241740BC402C421FD0072101278946F6
:1006100009E0D408055D06194C4639001440A14094
:100620000C00294211D001329342F2D20120404203
:10063000BFF35F8F00220E4B1A608CF310880028E6
:100640000FDBC0BCB946B046F8BD2543100035707D
:10065000EEE7BFF35F8F00232B608CF3108801203F
:1006600040424346002BECD00898FFF77BFFC04682
:100670002C0100D0044A1078431CDBB2172B00D9A0
:10068000102313707047C046580F002010B5064B5A
:10069000064C82B00100009318221F232000FFF7B0
:1006A0009BFF02B010BDC046846A0010A81700204E
:1006B0000021044B044ABFF35F8F02C39342FAD177
:1006C0007047C046000100D0800100D0054B064AAB
:1006D0001360064A136053609360D36013615361E3
:1006E000936170478080808000E400E004E400E0D3
:1006F0001F2318401E3B8340002905D0C021044A17
:100700004900535013607047802201498B50FAE72B
:1007100000E100E001228240034B1B6813405A1E97
:100720009341D8B27047C04600E100E00123834006
:10073000014A13607047C04600E200E0064B1030EB
:100740009B688000C358054A00209B1A47229A42A2
:100750004041C0B27047C04600ED00E05C0F002091
:1007600010B5EFF3108C72B60F4A1368002BFCD053
:10077000BFF35F8F0D4B10309B6880001B580C4AF5
:10078000934201D099420CD1084B9B681950BFF39A
:100790005F8FBFF35F8F0022034B1A608CF31088CA
:1007A00010BD01F003F8C046240100D000ED00E0C8
:1007B000C1010010F0B557464E46DE464546E0B54D
:1007C0008A4685B00600EFF3108972B662490B685D
:1007D000002BFCD0BFF35F8F0021604B59568C4635
:1007E000002900DAB5E049000D005D4C6544AD001C
:1007F00067190291B979103619705A4BB1009B688C
:1008000001915B58191B472935D8012118008843ED
:10081000C679964200D873E09B46029B019E98469B
:10082000039507E04D006D18AD006519EB79934213
:100830004ED92800062141560029F3DA45465B4689
:100840000295051D0395484D0196039E043FBF1B6D
:100850003F05464E7F0D3743664687808671029876
:10086000604480002418E27152464148A58020600F
:10087000A171A26018E03F498B4200D069E03E4B75
:100880003A4963533D4B0235043B65195B1B1B051D
:100890005B0D0B437B803A4BFA71BB80FF23BB712E
:1008A0005346BB6001233B432E4A01999268535043
:1008B000BFF35F8FBFF35F8F0022274B1A6089F36E
:1008C000108805B0F0BCBB46B246A946A046F0BDB4
:1008D000019646460296061D039D039686885B4652
:1008E00076053615B346039E0435B046C3445E46CE
:1008F0006519751BE0262D056D0D36023543A4E7FD
:10090000204BFA719C46030066461B1B5B415E430D
:10091000360DB446AE1CB046A0444646164B635353
:10092000164B0435043B9B1B1B05104E5B0D3343DC
:100930007B806319C31A043B1B055B0D3343BB80EB
:100940006346BB715346BB60094B03603B000B43DE
:10095000AAE700F02BFFC046240100D05D1C002058
:100960005C0F002000ED00E001BD000000E0FFFF93
:1009700001488047C101001000A1FFFFA40F002023
:1009800001BDFFFFAAAA000070B501240443EFF3E4
:100990000581EFF3108C72B6274A1368002BFCD048
:1009A000BFF35F8F254A0500254BAD1A6D416B43A0
:1009B0001B0D244D8900AE685BB27658A64224D048
:1009C00006215156994224D01221515699422AD0DB
:1009D0001E215156994228D02A215156994226D09B
:1009E00036215156994224D042215156052499422C
:1009F00010D0154A117813708171BFF35F8F0022F8
:100A00000D4B1A608CF3108870BDAA680F4C5450BF
:100A1000EFE700246100091989005218FF21917144
:100A20000B499180E5E70124F4E70224F2E703246F
:100A3000F0E70424EEE7C046240100D05C0F00205C
:100A4000AAAA000000ED00E05D1C0020C10100101A
:100A500001BDFFFF10B5084B084C82B001000093A8
:100A6000002205232000FFF7B7FD002801DB1F232C
:100A7000181A02B010BDC046A06A0010611C002008
:100A8000024B9C466144890001607047400000347D
:100A9000F0B5FF23C646144D144F2C00984600B500
:100AA000BD420DD31DE0FFF7E5FD01002800FFF773
:100AB000E7FF4346B380BFF35F8FBC4211D22500EE
:100AC000236826000834002BEDD1FFF7D3FD010089
:100AD0002800FFF7D5FF43463371BFF35F8FBC4259
:100AE000EDD380BCB846F0BD381000204010002087
:100AF00010B50400FFF7BEFD01002000FFF7C0FFA6
:100B0000FF232371BFF35F8F10BDC04610B50400F3
:100B10000120FFF7BBFD034BC3189B002360BFF30D
:100B20005F8F10BD40000034034B9C466144890038
:100B30000160BFF35F8F7047400000340A4B1968B3
:100B4000EFF3108072B60A68002AFCD0BFF35F8F03
:100B50001B68BFF35F8F00221A6080F3108840BFCC
:100B6000002000217047C0463C1C0020F0B5DE4646
:100B700057464E464546E0B585B0EFF30582032360
:100B80001340B54A9900575801229A408846934627
:100B9000B24B1A60B24B02935B46B24843630823E0
:100BA000FE5E002E35DABB881BB2002B00DBA8E00E
:100BB000BB79002B00D0E9E00823F85E00281EDB9B
:100BC00043007A691B18DB00D3189D68DC686B1C36
:100BD00000D108E1A34801004144826A0B69AE1AC2
:100BE0009B1A9E4213D35A46036A1A420FD09D485D
:100BF00000F0C8FB8C4202DCCED18542CCD940BF8C
:100C000005B0F0BCBB46B246A946A046F0BD0D619A
:100C1000EDE77A69730091469B19DB0099444B46D6
:100C20009C68DD6800F0AEFB8D42BCDC00D1FCE0CE
:100C3000002D00DAE1E04A464B4652691B699246B4
:100C4000029A934200D1D2E04A460821785E528847
:100C50000004514610439847009001910099019A71
:100C60000B001000134300D1C7E013000A00002856
:100C700000DBDEE020002900801A99414B46986095
:100C8000D96000229A5E002A00DA8CE753009C1893
:100C90007D69E4002C190093A368E4689A468C42AD
:100CA00000DD80E702D1834200D97CE708239C461F
:100CB000BC443A8103976746009BB4463E000EE071
:100CC0008C4200D1C3E01E000023F25E002A0BDB41
:100CD00053009C18E4002C19A768E468BA469B18D6
:100CE000DB00EB188C42EBDD330066469C464B463E
:100CF0001A806346039F1E80BB881BB2002B00DA5C
:100D000056E73A69EFF3108172B61368002BFCD0F6
:100D1000BFF35F8F0123BE885B42BB8036B23B6965
:100D2000BFF35F8F00221A6081F31088002E00DA73
:100D30003EE73B0008333A0099467D6973009B19F2
:100D4000DB00EB189968DC688C460820115E484689
:100D5000002910DB009306E0A34240D00023F95E97
:100D60003800002906DB4F007F18FF00EF19FB68F1
:100D7000A342F1DD009B068000201E5E1980002E3C
:100D8000DCDA1700BB79002B00D115E70023BB711B
:100D90003D000823F95E08354B1C00D12FE77C6924
:100DA0000800A44603E035004B1C00D106E74B00C9
:100DB0005B180A006146DB00CE18C95E73881BB25F
:100DC000002BF0DA01235B42DC17B360F46082424F
:100DD000EAD029803B89100033803A81E4E7BB6880
:100DE0006345BBD9C6E7631C00D0F3E6FFE6534674
:100DF00050461B699847002823D14B461B883A6907
:100E00003B81EFF3108372B611680029FCD0BFF369
:100E10005F8F49467A880A803A697E80BFF35F8F88
:100E20000021116083F31088BDE6844200D8FFE6FC
:100E3000B9E60C4800F0A6FA009B019CC01861417D
:100E40001CE753461A685B680092019306E78245E7
:100E500000D838E748E7C046201C00203C70054019
:100E60006D0B00100040054070B52E4C2569002D1B
:100E700004D00A212C48FFF703FE70BD2B4E03213E
:100E8000300000F075FAE660FFF7F4FB284B032210
:100E90009C46D02322701B061B6801216370254BE2
:100EA0006044A3600F238000206102206380636997
:100EB0004942A18019800231198647311D83585259
:100EC00018315A5275325C3999521832013199529F
:100ED00018320131995218320131995208351832BD
:100EE0009D520231183299521832013199521832FA
:100EF0000131995218320131995218320131995207
:100F00001832013199520C4B0C49DC6001303562CA
:100F1000FFF726FC01210320FFF7EAFB084B1D60C9
:100F2000A7E7C046C80F00203C1C00200040054039
:100F300040000034FFFF1000201C00206D0B00104B
:100F40003860054000487047C80F0020F8B51F0002
:100F500008AB1B7804001600002B08D100F01AFA29
:100F600032003B00121A8B41002B00DA53E0226959
:100F7000EFF3108072B61368002BFCD0BFF35F8FC5
:100F80000223E15E63694A005218D2009B180029CF
:100F900037DB1A8862802269BFF35F8F00251560F6
:100FA00080F31088069A9E60DF601A61079A5A6182
:100FB0005A8801325204520C101C002A1FD082B2EF
:100FC0005880080410432669EFF3108772B6326820
:100FD000002AFCD0BFF35F8FA2881A80A18023690A
:100FE000BFF35F8F00221A6087F310880B492378C4
:100FF0008C4601329A40E36863441A60F8BD0120D0
:10100000DDE72369BFF35F8F00221A6080F3108849
:1010100001204042F2E70020F0E7C0463C200000FB
:1010200070B501000469EFF3108C72B620680028D7
:10103000FCD0BFF35F8F02200D5E4C696800401941
:10104000C0002418002D37DB208848800869BFF3D2
:101050005F8F002606608CF31088E3606388049835
:10106000013320615B0405985B0CA26060611A1C6F
:10107000002B1FD093B22804628018430A69EFF353
:10108000108C72B61368002BFCD0BFF35F8F8B8877
:1010900023808D800B69BFF35F8F00221A608CF371
:1010A00010880B7801329A40CB6808498C4663441B
:1010B0001A6070BD0122DDE70B69BFF35F8F00226C
:1010C0001A608CF3108801204042F2E73C200000B7
:1010D00010B543890A1493421ADD53009B184269E4
:1010E000DB00D3180469EFF3108C72B62268002A73
:1010F000FCD0BFF35F8F5A88090494B2090C8A426E
:1011000008D00369BFF35F8F00221A608CF3108848
:10111000002010BD8022120214435C80012302696A
:101120008371BFF35F8F002111608CF31088044935
:1011300002788C469340C268012062441360E8E75D
:101140003C20000040787047F0B504000D000626F2
:101150007642F717C64636196F4100B582B08F4206
:1011600014D811D000F016F932003B00121A8B414E
:10117000002B17DC002B47D02000290000F014F9C9
:1011800002B080BCB846F0BD8642EBD900220023F5
:1011900016001F0000F0FEF832003B00121A8B41CF
:1011A000002BE7DD00F0F6F832003B00121A8B410D
:1011B000002B0ADB00230193154B320000931548E6
:1011C0003B00FFF72DFF0028D6DB00239C46B046EE
:1011D000114A124E736A9F4204D8B16A4145CBD27C
:1011E0009F42C9D11168EFF3108072B60B68002BD3
:1011F000FCD0BFF35F8F1368BFF35F8F6146196048
:1012000080F3108820BFE5E7002AB5D0CAE7C046C2
:101210003D0B0010C80F00203C1C00200040054082
:1012200070B5060000F0B6F8FA2204000D000023A5
:1012300030000021920001F027FA80230019694153
:101240001B06994202D3012002494042FFF77CFF6E
:1012500070BDC046FFFFFF7FF0B5D6464F464646FD
:10126000C0B504000D0082B0EFF305830F00002B22
:1012700031D13B4B98461B68834227D0394B994666
:10128000DB689A464B4650461E7800F07BF80B0010
:10129000514602000436B60071582000891A8C4667
:1012A00029000026801A99418E4224DC21D020BFDB
:1012B0002D4A536ABB422AD3926A0120A24213D319
:1012C00002B0E0BCBA46B146A846F0BD43465B68F2
:1012D0008B42D3D1EBE7244900204B6AAB42EFD3DA
:1012E0008A6A0130A242EBD25B1B5A1E9341D8B2EC
:1012F000E6E78445DBD900F04DF822002B00121AF6
:101300008B41002B05DA184A536ABB42D4D2002025
:10131000D6E700230193154B2200009348462B008B
:10132000FFF77EFE011EEEDD43461C605D600E4B46
:101330005A6ABA4211D39B6AA3420CD34846FFF7BC
:10134000C7FE094A0020536ABB42B9D3926A0130F2
:10135000A242B5D2C8E7BA42F0D120BFEEE7C046FC
:10136000C00F0020C80F0020004005403D0B0010BA
:1013700010B5024A0248FFF70DF910BDBC6A001013
:10138000AC1700200300416A0A00986A596A8A4231
:10139000FAD17047034B596A0A00986A596A914218
:1013A000FAD1704700400540064A536A9942FCD87A
:1013B00007D1044B02E05A6A914202D19A6A8242F2
:1013C000F9D3704700400540F8B5DE464E46574613
:1013D0004546E0B58B4605000A991800160000F056
:1013E00037FB0A9B6C001F02314B64199C46A4001A
:1013F0006444636881469F4200D967602B1FDBB25B
:101400009846C02342469B01E318012A2DD9802229
:1014100012011A60274BAD0059599A4600291BD179
:101420007301E026226853401E40802342465B0140
:10143000E3181E60012A2DD9802380229B01E31826
:1014400012011A6053464A4667605A51F0BCBB46C7
:10145000B246A946A046F8BD586900F0F9FA013035
:1014600043001B18033BFDD2DAE75A46012ACED1CE
:1014700002321A60023AA3681A42FCD07301E026D5
:101480002268AD0053401E4080230A4A5B01924609
:10149000E3181E605A462168514003220A401A6030
:1014A00001225B469A40A3681A42FCD0C4E7C046BA
:1014B00000800040B0170020F0B546464F46D646A3
:1014C000C0B51F00334B44009C462418A40064445C
:1014D000636888461600FF2B02D880235B00636098
:1014E000031FDBB29A46C02352469B01E318012A30
:1014F0002DD9802212011A60274B8500595999462F
:1015000000291BD17301E026226853401E4080232E
:1015100052465B01E3181E60012A2DD980238022E8
:101520009B01E31812011A6080235B0063604B4645
:101530005F51E0BCBA46B146A846F0BD586900F01C
:1015400087FA013043001B18033BFDD2DAE742461D
:10155000012ACED102321A60023AA3681A42FCD0A4
:101560007301E0262268850053401E4080230A4A0A
:101570005B019146E3181E604246216851400322F8
:101580000A401A60012342469340A2681342FCD0ED
:10159000C4E7C04600800040B0170020014B800027
:1015A000C0587047B0170020F8B5040020481D004F
:1015B00017000E0000F04CFA0100380000F048FA65
:1015C000069B29041B0319432368002B1EDB194BC0
:1015D000194DE21853425A4180235B019C46120385
:1015E000164B62441A60164B1A6017002B689F4313
:1015F000FBD1144B2660E2182123A06013602368FE
:10160000002BFCDA0823E1601360F8BD3F23226859
:101610001340B342DBD1A3681B051B0D8342D6D117
:10162000EE22E368D20213408B42D0D1EDE7C046F0
:10163000001BB7000040FDBF08C0004000E00040B4
:1016400000F000400430000010B580241C4BE4057D
:101650001C6000281AD001231A4C18431A4BDC6175
:101660001A4C44401C62596298628021144BC9058F
:101670001960174817490860E021C9041960002A59
:1016800007D18022144B12061A6010BD0E4BD86190
:10169000EBE753019B1A9B009A18802312015B040D
:1016A0009A4209D213000D490B60074B5A60802201
:1016B000094BD2051A60E8E7094B1A00F3E7C04668
:1016C00000B00540D3C007B0008005402D3FF84F63
:1016D000FCFF01000820014000A00540101C002074
:1016E000FFFFFF008023024A9B000B43D362704739
:1016F00000800540142310B50100188804331B88AE
:10170000984710BD162310B50100188802331B88B6
:10171000984710BDF8B54746CE4680B50F1E19D084
:1017200014239946043304000025012698464B46AD
:101730001888434621681B88984701C4431E984176
:10174000013540420640AF42F1D13000C0BCB9463D
:10175000B046F8BD0126F8E7142370B504001888D8
:1017600004331B880D000549984703000020002C16
:1017700001DB0130A04029009847C04655420000D7
:10178000AA23064A1B0113608D235B00D360044922
:10179000044B19605368002BFCDA7047004002408C
:1017A00000B0FA00006002407047C04610B5014822
:1017B000FEF7D8FEE06A001070B5074D074EB5423F
:1017C00009D20024013E761BB60808CD98472300B5
:1017D0000134B342F9D170BD0868001044680010AC
:1017E000054B064A06491A60064A074B1A60100064
:1017F0000B689843FBD1704700E00040BFCDFBFE73
:1018000008C00040FE7F3C0000F00040044BDB6C51
:10181000002B03D18022034BD2021A607047C046CE
:10182000000011504C201150044A054B1A60054A23
:101830001368DB018033FBD17047C046FFFFFF0117
:1018400000F0004008C000404022034B9A675A67EE
:101850001A67DA667047C04600F0014010B5FEF71F
:1018600027FF10BDF8B52749274C284D641AA40856
:101870002200302C00D930222800920000F0EAFF2C
:101880002F2C3BD830202F21A700EB195B07204AD3
:10189000001BDB0F091B052916D92600002B01D0E0
:1018A000EA51661CC01AE3189B004108EB18C900F6
:1018B000C9181A605A6008338B42FAD101230342D7
:1018C0001CD098438419A700EA51631C2F2C15D013
:1018D0009B00EA50A31C2E2C10D09B00EA50E31C66
:1018E0002D2C0BD09B00EA50231D2C2C06D09B00E6
:1018F000EA50631D2B2C01D09B00EA50054B9D60E4
:10190000F8BDC04600010010C0010010000000201A
:10191000C101001000ED00E0002310B5294C82B099
:10192000A367FFF72DFF0122274B1A60636C012B81
:10193000FCD10322254B1A60224A936B012BFCD168
:10194000013300930121224A22480433FFF72CFE81
:10195000052301210093204A2048FFF725FE00229D
:10196000022104201E4BFFF7A7FD002201210520C4
:101970001C4BFFF7A1FD0022002107201A4BFFF7A7
:101980009BFD002200210820174BFFF795FD8023C7
:10199000DB000093002200210920134BFFF714FD08
:1019A0000022104B00210620FFF786FD0420FFF7E0
:1019B000F5FD0E4900F04CF801000020FFF792FE03
:1019C00002B010BD008000403CB0004030B000408C
:1019D000002F685900800240008C864700C00240FA
:1019E000001BB70040597307006CDC0240420F0037
:1019F00001480421014B1847E00F00201517001083
:101A0000124A936F9B0815D29066D166002905D0C3
:101A1000FFE7FFE7FFE7516F106F704704B58021C4
:101A20000906C2175140002800D0C84304F0D4FE74
:101A3000002104BDF0B5146E556E576F166FFFF799
:101A4000E3FF1466556657671667F0BD000000D0C7
:101A5000114A936F9B0813D210665166002905D076
:101A6000FFE7FFE7FFE7516F106F704704B50028ED
:101A700001D00020C04304F0AFFE002104BDC046E9
:101A8000F0B5146E556E576F166FFFF7E5FF1466CD
:101A9000556657671667F0BD000000D094464A4A65
:101AA000926F9208624601D228E0C046F0B5464ED9
:101AB000346E756E776F366F00F020F89446424AA8
:101AC00014665566576716676246F0BD94463E4AEF
:101AD000926F9208624601D254E0C046F0B53A4E89
:101AE000346E756E776F366F00F04CF89446364A58
:101AF00014665566576716676246F0BD002B24DBF7
:101B000011D000293EDA00B5C943404200D101316D
:101B100000F038F8C943404200D10131DB43524262
:101B200000D1013300BD002AEBD1002801D10029EA
:101B300005D00020C90FC90701D1C043410800B535
:101B400004F022FE0022002300BD00B500290ADBBC
:101B5000DB43524200D1013300F014F8C943404244
:101B600000D1013100BDC943404200D10131DB4306
:101B7000524200D1013300F005F8DB43524200D15C
:101B8000013300BD002923D1002B18D1002A0CD02D
:101B9000BC460D4F38667A6600210023FFE7FFE759
:101BA000FFE77A6F386F67467047002801D0074813
:101BB000010000B504F0E8FD0022002300BD020092
:101BC0000B00002000217047000000D0FFFFFFFF46
:101BD000002B00D0BFE0130C28D1002AE7D080B43E
:101BE000114F39667A66FFE7FFE730B4040C7B6F6C
:101BF000396F1B0423433B667A66FFE7FFE7FFE785
:101C0000C04684B27B6F3D6F1B0423433B667A66FC
:101C1000FFE7FFE7C04600232C042D0C7A6F386FD6
:101C200000196941B0BC7047000000D0F0B594467F
:101C30000025140E01D112020835140F01D1120132
:101C40000435940F01D192000235D40F01D1520016
:101C50000135D40B0134254F7C66254C3C660E0CB7
:101C600093B2FFE7FFE7FFE73C6F6643360C77036D
:101C7000BE467343DF0B5B04C01AB941130C7343B8
:101C8000DB18C91ACE086643360CB64493B27343C8
:101C90001F0F1B01C01AB941130C73431F0B1B0507
:101CA000C01AB941860D8F023E436643360C092D9A
:101CB00024DB520A7243801A7703460A6643360CC5
:101CC00016235B1BDE40DF40BF1964466643821B60
:101CD0007046043506330100D940A840C01900D32E
:101CE0000131A24206D20023F0BD0000000000D066
:101CF000FFFFFFFF121B0130F3D3F1E709277F1B22
:101D0000FE406446A2B27243801A00D20139220C0E
:101D10007243130C1204821A99410B007046043569
:101D200013370100F940A840801900D30131002B7E
:101D300002D1A2420AD2F0BD013000D30131121B00
:101D4000FAD2013BF8D1A24200D2F0BD013000D35B
:101D50000131121BF7E7F0B51C0C00D080E00CB489
:101D600000251C0A04D11B02160E3343120208354B
:101D70001C0B04D11B01160F3343120104359C0BBD
:101D800004D19B00960F334392000235DC0B02D145
:101D900092185B4101351C00971864410134464F8D
:101DA0007C66464C3C660E0CFFE7FFE7FFE7C0464B
:101DB0003C6F6643360C7703BE4697B27743C01B31
:101DC00000D20139C01B00D201399FB27743C91B31
:101DD000C91B170C77437E04FF0B801BB941CE084B
:101DE0006643360C0C2D33DBB644120B1F053A4309
:101DF0001B0B97B27743C01B00D201399FB27743C8
:101E0000C91B170C77433E043F0C801BB941860D5C
:101E10008F023E43664329277F1BFE400C3D7746D9
:101E2000AF40BF1930BCA2B2ABB272437343801A49
:101E30009941220C7243130C1204801A994102003A
:101E40000B000137001BA941F9D2781E0021F0BD1B
:101E50000C277F1BFE4077467F0BAF40FF19E0E762
:101E600000245D1C07D0144F7D663966FFE7FFE74D
:101E7000FFE7FFE73C6F95B29EB265436643401BA8
:101E8000B141150C1E0C6543664336042F0C3E43CE
:101E90002D04401BB141994204D202000B002000E6
:101EA0000021F0BD01D19042F7D3801A994101344D
:101EB0009942F2D3F6E70000000000D0FFFFFFFFD9
:101EC00048404140484018B41B4B5B68FC460193B6
:101ED00008BD04DF5B21001018B4174B1B68FC46DB
:101EE000019308BD00DF652100109446134A926FEC
:101EF000920809D2624618B40F4BDB68FC46019386
:101F000008BD0CDF1D2400100C4AF0B5146E556E90
:101F1000576F166F6246FFF7EEFF084A1466556664
:101F200057671667F0BD18B4034B9B68FC460193D6
:101F300008BD08DFC1220010C8110020000000D039
:101F4000FFB550404240504059404B40594000E09E
:101F5000FFB5154F4C00640D03D0BC4204D10C03F7
:101F600014D80020090D09055C00640D03D0BC42A3
:101F700004D11C030AD800221B0D1B0501264B406F
:101F800009D44B4003D58B4200D18242FFBD994218
:101F9000FCD19042FFBD0B43DB1803431343F5D044
:101FA000C9434918FFBD0000FF07000000B5FFF757
:101FB000CFFF804100BDC04600B5FFF7C1FF01D98A
:101FC000002000BD012000BD00B5FFF7B9FF804132
:101FD00000BD012040054A00121804D85A0012180A
:101FE00001D8002070470120704700000021002820
:101FF00005D17047C1174840401AFAD0C90713B538
:10200000064B1B6898470CBC441CA2401005120BE1
:102010000349091B09051943114310BD381C002051
:102020001F04000010B54C00620D8023D218DB00A5
:10203000D21A5B057E2A10DD9E3A13DACC1709030B
:10204000490819435242D140640001341532202A14
:1020500005DAD0400843604310BD002010BD08469B
:10206000604310BDC80FC018013810BD18B4044B30
:102070005B6AFC46019308BD24DFCD2500100000FB
:10208000C8110020132370B51D78012D19D014DD5F
:102090001F48FFF737FB06001E48FFF733FB1E4CB7
:1020A00080223100200000F0D5FB022D2DD01B48EE
:1020B000FFF720FB1A4B186070BD1A4B164CA36437
:1020C000F5E7184B144C23606360A360E360236161
:1020D0006361A361E36123626362A362E3622363DA
:1020E0006363A363E36323646364A364E3642365BA
:1020F0006365A365E36523666366A366E36623679A
:102100006367A367E367A364D1E7064BA364CEE7E5
:102110005344000053460000C81100204C33000017
:10212000381C00202921001007B5604601880A0AE2
:102130000230DF2AFAD1C9B2820804D3028840886B
:102140000004104300E00068014A5050039007BDAE
:10215000C81100200FB403BC0CBCF0B50124E40787
:10216000634000E0F0B50C0DCF0F661E3605891BED
:10217000640503D3C943404200D30131640D03D049
:10218000661CF60A07D0E41B00207F00791C890733
:102190008912803C24031D0DDF0F6E1E36059B1B2C
:1021A0006D0503D3DB43524200D301336D0D03D0E1
:1021B0006E1CF60A07D0ED1B00227F007B1C9B07DC
:1021C0009B12803D2D032F1B661B58D4A446202E46
:1021D00046DA20371400BC401D00BD40F2403341B8
:1021E0002A4380185941CB0F05D0C943C043002270
:1021F00064425041514162464D0D28D10D0D07D129
:1022000000281FD0241940414941013A0D0DF9D051
:10221000640006D3013000D30131002C01D1400805
:102220004000013A0BD4941CE40A04D11205114475
:10223000DB071944F0BDD907204B194300E0D9074B
:102240000020F0BD0029DDD1002CDBD1F0BD013232
:10225000C6074008CD0728434908002EE1D0D9E73A
:102260003C2E29DA203E40371400BC4000D0012427
:10227000F24014431A00BB401C43D317ACE7AC46F2
:10228000202F08DA20360400B4400D00B540F84095
:1022900039412843A5E73C2F0CDA203F40360400A3
:1022A000B44000D00124F84004430800B1400C437E
:1022B000C117EAE710001900002494E70000F07F3E
:1022C000F0B50C0D661E3605891BE60A6405640D23
:1022D00002D0651CED0A04D0002001210905803CD4
:1022E0002403A4461C0D671E3F05DB1BE70A64059B
:1022F000640D02D0651CED0A04D0002201231B05E9
:10230000803C24037740644497B484B296B274430B
:10231000070C7E43150C6F4380B26843361802D316
:10232000012000043F183004350C00197D4184461B
:1023300088B29AB250430C0C62431F0C7C438EB29D
:102340007E43921902D301263604A4191604170CF1
:102350003618674101BC81B29AB25143040C624302
:102360001B0C5C4380B25843121802D301200004B6
:1023700024181004130C401863412D185E410020EE
:10238000474106BC88B293B258430C0C6343120C0D
:10239000544389B251435B1802D3012109046418E4
:1023A00019041A0C091862416D1856410020474162
:1023B00018BCF902720D1143F0026A0D1043ED02D0
:1023C0000A0D03D16D1940414941013B124E9B1B3F
:1023D0007600B3420ED26D0007D301300026714162
:1023E0006646354301D1400840001B05C918E40783
:1023F0002144F0BD0BDA013306D1013004D10131A3
:102400004F0D01D04908F2E7E1070020F0BD013689
:1024100031050020EBE70000FF030000F0B51C0DC4
:10242000671E3F05DB1BE70A6405640D02D0661CCE
:10243000F60A04D0002201231B05803C2403D0258A
:102440002D060026F6432E661E096E66CE0FF6197F
:10245000B44649004F0D02D07E1CF60A03D000207E
:102460000021403F3F033E1BB600B444013F7F05BF
:10247000C91B49082E6F013676089C02950D25432D
:102480007543ED137543AD1301356D10F603761BDF
:102490000CB4CC02450D2C43A2B2B3B25A43270C64
:1024A0007B43350C6F43A4B26C431B1902D3012448
:1024B00024043F191C041D0CA4187D4124196D41EE
:1024C000009A91B2ACB26143170C7C432B0C5F4372
:1024D00092B25A43A41802D301221204BF18220454
:1024E000230C52187B41019C6C431B19520ED901DD
:1024F0000A434401A01A81B2B2B2514303145A43B1
:10250000360C734387B27743D617D21900277E4122
:1025100036049B191704160C7F185E417316ED18CC
:10252000F301002680337541A90F06D16400690AC2
:10253000E8055B0A184309D22FE004229444803353
:102540007541A90AA8059B0A184326D34041494171
:102550002404009A019B0D005543641B4343E41A75
:1025600095B286B27543170C7E43030C5F4392B25B
:102570005A43B61802D301221204BF183204330C96
:1025800052197B4152429C41002C02D4002201305E
:1025900051414008CA071043490802B06246D707B4
:1025A0009210084BD218084B9A4203D21205891890
:1025B000C919F0BD0020002A01DC3900F0BD01334B
:1025C0001905F5E7FD030000FE070000002200B535
:1025D000203200F004F8080000BD000000220B15B6
:1025E0000AD410B5944600F031F81414013400DA1E
:1025F0000021CB17144C2047002000217047624473
:10260000343A0CD40C2A07DA04009140904052422C
:102610002032D440214310BDD843D94310BD2032CD
:1026200007D40C469440524220321141D0402043FE
:1026300010BD0800C917203203D452422032104185
:1026400010BD1800190010BDFF2500100A0DCC0F99
:10265000531E1B05C91A520503D3C943404200D378
:102660000131520D03D0531CDB0A07D0121B00208E
:102670006400611C89078912803A1203014BD21A47
:1026800070470000FF03000051434343C9188C46C4
:10269000110C83B24B4310B4040C614392B280B26C
:1026A000504362431C041B0C001910BC5941130415
:1026B000120CC0185141614470470000484041402D
:1026C00048400E4B5B6818470C4B1B6818470C4A78
:1026D000936F9B0802D2094BDB681847F0B5146E64
:1026E000556E576F166FFFF7F6FF054A146655666D
:1026F00057671667F0BD014B9B681847C81200204A
:10270000000000D007B548404140484001E0C046C5
:1027100007B54200120E03D0FF2A03D1420218D897
:10272000C00DC0054A00120E03D0FF2A03D14A0291
:102730000FD8C90DC9050122414005D4414001D53A
:10274000814207BD884207BD0143491801D0C043FB
:10275000001807BD00B5FFF7D5FF01D9002000BD67
:10276000012000BD034BDB6FFC4618477CDF0928C6
:1027700000100000C8120020132310B512481C7866
:10278000FEF7C0FF0100012C0AD003DD80220F48B4
:1027900000F060F80E48FEF7ADFF0E4B186010BD5C
:1027A0000A4C5422200000F055F80B4B6365A365DA
:1027B000E36523666366A366E36623676367A367CF
:1027C000E3672362E361E5E753460000C812002097
:1027D0004C330000381C0020DD27001007B5604690
:1027E00001880A0A0230DF2AFAD1C9B2820804D36A
:1027F000028840880004104300E00068014A5050FD
:10280000039007BDC8120020C30FDB0741000A0E6A
:1028100007D0FF2A08D00909054A8918194340073B
:1028200070471900002070470249C918FAE70000F4
:10283000000000380000F07F01480421014B1847D8
:10284000F00F002015170010014B1B6818470000FF
:10285000F00F0020014B5B6818470000F00F0020CC
:102860007047C046F8B557464546DE464E46E0B589
:1028700098460A9B06009A460D9B0F00934615004A
:102880009B0710D10B9B0C9A93420CD213005C4611
:102890000B9A9D1A5D4422004346013439002020E2
:1028A000B047A542F7D10B9C6319002C09D01D003D
:1028B00053462A1B013C185D39004346B047002CA3
:1028C000F6D10D9B9B070ED55B46EC1A0C9BA342E1
:1028D00009D999462A004346390020200134B047DF
:1028E0000135A145F6D82800F0BCBB46B246A94642
:1028F000A046F8BDF0B54F464646D646C0B584B0B2
:1029000098460EAB1B7894469946129B0D9C109FDF
:10291000119E9A0724D4002E6AD1BC4220D20122F3
:102920001A409246202C00D1D2E00C9A551E30223B
:1029300001E0202C30D001342A55A742F9D8524664
:10294000002A0DD0B4420BD20C9A551E3022202CF6
:1029500002D126E0202C63D001342A55B442F9D1AB
:10296000DA0634D55A0564D4002C5ED10F9A102AA9
:1029700000D197E0022A00D1A8E030220C9C2270FE
:1029800001244A46002A5ED15A0700D483E02B2254
:102990000C9D2A5501341CE05246002A02D0202EFC
:1029A0003ED92024DA0614D55A0512D4202F00D19E
:1029B000A1E0202E3DD120261F2234000F9D102D96
:1029C00000D18BE0022D52D030250C9FBD54202C1D
:1029D000D7D103930C9B6246009302964346019421
:1029E000FFF740FF04B0E0BCBA46B146A846F0BDD0
:1029F000012215001D40AA461A4229D04A46002A43
:102A000039D10C321A4236D1BC429BD2202C00D094
:102A10008BE710221A40202EC3D8002AA2D1D8E773
:102A20002024DA06D5D55A0503D4A74225D0B442CE
:102A300023D00F9A102A25D0022A14D0202CC8D0D7
:102A400022000134C0E72D220C9D2A550134C0E735
:102A5000BC4200D384E7202C00D066E710221A4045
:102A6000002AE0D1B5E7202CB3D022000134622542
:102A70000C9FBD54E2E7013EC6E7621E012C00D167
:102A800074E79BE79A0616D4202CA2D078220C9DDE
:102A90002A550134D2E71A079BD520220C9D2A55CE
:102AA000013496E79A060FD478220C9C22703022CB
:102AB0006270022465E7202C00D18AE758250C9A21
:102AC000121915700134B9E75822EEE76222ECE7DB
:102AD000102255461A40002D9FD1C1E7023C9D06A9
:102AE00004D478250C9F3D551400A9E758250C9F68
:102AF0003D551400A4E71F2260E7C04610B500282A
:102B000000D110BD01F08AFBFBE7C0460B0010B5F9
:102B1000002802D049681B68984710BDF0B5574699
:102B20004E464546DE46E0B599B082468946904617
:102B30000893229A239B10001900FFF74AFA0028F5
:102B400000D0CDE0229823990122D94B5242FFF7C1
:102B50003BFA002800D0C3E0229823990122D54BEC
:102B60005242FFF723FA002800D0B9E022982399B7
:102B700000220023FFF71AFA002800D0F1E1229E7C
:102B8000239F8023269ADB001A400D92269A1A4230
:102B900001D1062324938023269A1B011A403B006F
:102BA00093460996334300D0B3E0002A00D0C2E137
:102BB000002300240A930B94002304250993259BEA
:102BC0000024AB4200D95C1B0223269A1A400C92C7
:102BD000269A134203D06B426B415B421C40099B17
:102BE000002B07D00A9A0B9B30003900FFF77DF9C4
:102BF00006000F002298239900220023FFF7D6F940
:102C0000002803D0802109067B181F00269AAA4BB2
:102C1000009601971340089E0493249B039402930B
:102C2000424633004946504600F0AAF90400002D00
:102C300067D02020269A4946024013005A42534149
:102C40005B42621C18400A92330022004530D04794
:102C5000099A6F1ED317D4185C40D30F9B460025EA
:102C600001E0202D13D008AA94461F2320006344BE
:102C70000A2101355E19FEF7EBFE3031317020007C
:102C80000A21FEF7E5FE26000400092EE9D80523F7
:102C90000693002304930A3303935B46089E029332
:102CA00010AB0A9A009349463300504605970195A8
:102CB000FFF720FE0C9A0400002A22D04246851A13
:102CC000259AAA421DD9B04657461600220043460F
:102CD000494620200135B8470134AE42F6D810E00D
:102CE000269B42460493259B49460393249B5046CA
:102CF0000293229B239C00930194089B00F040F9CF
:102D00000400200019B0F0BCBB46B246A946A0465C
:102D1000F0BD6A4B78009C46400D6044FFF76AF9AD
:102D2000674A684BFFF7FFF8674A684BFFF7D4F82C
:102D3000674A3B031B0B1A4304000D00099811005E
:102D4000644B0022FFF7BFF8634A644BFFF7EBF8D0
:102D500002000B0020002900FFF7BEF8FFF762F920
:102D60000990FFF747F95E4A5E4B04000D00FFF73C
:102D7000DAF800225C4BFFF7AFF8FFF753F95B4A34
:102D80005B4B29000C902000FFF7CDF804000C9855
:102D90000D00FFF72FF9574A574BFFF7C4F8020011
:102DA0000B0020002900FFF78EF804000D00020040
:102DB0000B000A940B95FFF7B6F804000D000A9873
:102DC0000B9902000B00FFF787F800220E900F917D
:102DD0004A4B20002900FFF788F80022484BFFF7F4
:102DE0007BF802000B0020002900FFF77EF800228C
:102DF000444BFFF771F802000B0020002900FFF799
:102E000074F80A9A0B9B0D0080210400C90500206C
:102E1000FFF759F802000B0020002900FFF75CF8CB
:102E200002000B000E980F99FFF75FF80022284B65
:102E3000FFF752F8344B0C9C9C4664442305002257
:102E4000FFF771F804000D0002000B00300039009C
:102E50000A940B95FFF7AAF800285DD123002A00F9
:102E6000C625099963318D42AD4159466D420435FD
:102E7000002900D1A3E6134363D030003900234A70
:102E8000234BFFF799F8002807D0002230003900C3
:102E9000204BFFF78BF8002853D1249B002B00D147
:102EA0008DE60D9B5A1E9341249AD31A249386E6ED
:102EB000FFFFEF7FFFFFEFFFFFF7FFFF01FCFFFFCB
:102EC000FB799F501344D33FB3C8608B288AC63F19
:102ED0000000F03F0000F83F61436F63A787D23FD7
:102EE00071A379094F930A400000E03F1655B5BB26
:102EF000B16B0240EF39FAFE422EE63F00002C4053
:102F00000000244000001840FF0300002D431CEB8C
:102F1000E2361A3F80842E41099B0022013B09932F
:102F20002000164B2900FEF7E0FF0A000100030015
:102F30000A910B9294E7002300240A930B94002338
:102F40000993249A099B9A4214DDD31A013B2493D6
:102F50008023269ADB001A4300230025269209933A
:102F60002DE6802212069446229B1E00239B63447A
:102F70001F0006E600232493EAE7C0460000244031
:102F8000F0B54546DE464E465746E0B595B08B4611
:102F9000904699461E9A1F9B0A9019001000209D8A
:102FA000FFF717F8002800D0B0E11E981F99012202
:102FB000C74B5242FEF7FAFF002800D037E11E98B7
:102FC0001F990122C34B5242FEF7FEFF002800D09A
:102FD000A7E01E981F990022BF4BFEF7F5FF0028BF
:102FE00000D088E01E981F990022BC4BFEF7DEFF40
:102FF000002800D07FE01E981F9900220023FEF7D2
:10300000D5FF002800D0FAE000230B938023229CF8
:10301000229ADB001C401A4200D102E1092D00D89F
:103020007EE106A98C462C00172200233021093CA2
:1030300062440133D154EF1A202B00D132E1A34274
:10304000F7D10022A44B069207931E981F99FEF712
:10305000E9FF0500FEF7CEFF02000B001E981F9946
:10306000FEF731FF069A079BFEF75DFF0890099176
:10307000FEF7FCFF0600FEF7B9FF02000B00089800
:103080000999FEF720FF0022954B08900991FEF761
:103090009BFF002800D1D2E001363000FEF7A6FFEA
:1030A000069A079BFEF788FF002801D0002601350D
:1030B000AA46002F00D098E02800FEF79BFF0200F0
:1030C0000B001E981F99FEF7FEFE854B002206009E
:1030D0000F00FEF76BFF0CAB9A46002845D100228B
:1030E000300039007E4BFEF76FFF00283DD1EB0723
:1030F0003BD5013539E0229B42460493219B59463A
:1031000003930A981E9B1F9C0295009301944B46C3
:10311000FFF704FD15B0F0BCBB46B246A946A04679
:10312000F0BD229B5B0767D403226E4B229901926C
:10313000039121990291009342464B4659460A98C1
:10314000FFF790FBE6E706AA94461723280063449E
:103150000A2101341E19FEF753FC3031280031706A
:103160000A21FEF74DFC051E76D0202CEBD103235F
:10317000229A1340012B1DD1219B002B1AD00B9BAF
:10318000002B00D0BBE0229A0C33134200D0B6E0F3
:10319000219BA34200D887E006AB9C461722302330
:1031A000624404E02199013413558C4259D0202CFB
:1031B000F8D12024229B01940393219B0293534630
:1031C000B9E706AA944617230A2163443000013464
:1031D0001D19FEF73DFC3031297030000A21013FF6
:1031E000FEF736FC092E46D90600202CE9D15546BB
:1031F0000CAB20249A46B8E704223B4B96E71E9A74
:103200001F9B00200021FEF75EFE01230B9380230D
:10321000229C229ADB001E901F911C401A4200D073
:10322000FCE60022314B0627069207930DE7229B0E
:103230000393219B0293042301932D4B7BE70022F0
:1032400008980999264BFEF7B1FE002800D02FE719
:10325000002E4FD101362BE70323229A1340012B76
:1032600068D0202CA6D00B9B002B1FD02D235246BC
:10327000135501349EE75546202CB9D030223B1916
:10328000002F4BD0172006A9013409180A55202C0D
:10329000AED09C42F6D10CAA92462E2251465C1C1E
:1032A000CA5462E72024CCE6202C83D0229B5B0703
:1032B00008D4229B1B0700D47CE7202352461355D9
:1032C000013477E72B2352461355013472E7C04689
:1032D000FFFFEFFFFFFFEF7F65CDCD4165CDCDC196
:1032E0000000E03F946B00108C6B001080842E4136
:1032F0009C6B0010F30700D4DAE60136D8E6219B78
:10330000013B2193A34200D946E7AAE7229B0393FE
:10331000219B029303230193084B0CE72300BAE798
:10332000074BEA009B185C681B682F000693079404
:1033300000248AE6219B002B93D020E7986B001095
:10334000406D0010F0B54546DE4657464E46E0B5A6
:10335000A1B01D002A9B90460B93D04AD04B8346C8
:103360008A461A60002900D1A4E1002328789946F2
:10337000002800D1A6E1CB4B5E460993CA4B4C46D0
:10338000D34647460D930AE0631C984622003B0053
:103390005946B04744462878002800D1CDE0013591
:1033A0002528F1D108239A46043B9946023B9846CA
:1033B000013B00229C460C942878691C0300203BAA
:1033C000DBB2102B03D8099C9B00E3589F460300F7
:1033D000303B0C9C0A92092B7FD9002398462A285F
:1033E00000D1C1E000239A462E2800D190E00300CE
:1033F000683BDBB2122B1ED8AC4A9B00D3589F46C9
:1034000063460D001A43D7E743460D001A43D3E73E
:103410004B460D001A43CFE710230D001A43CBE7AC
:1034200053460D001A43C7E780235B000A9A687869
:103430001A430A9201310D0067280AD82428A3D91B
:103440000300253BDBB2422B9ED80D9A9B00D3583C
:103450009F4601006939C9B20F2995D801238B40D5
:103460009C46934B994663464A4613400C936246EA
:103470004B461A4200D05EE20A2900D124E1072916
:1034800082D10B9B02CB9846002900D19BE12120E1
:103490000A9A0243914610AB9C461F220F234046D6
:1034A00062440B959C46A04615000C9B0A9002E0D6
:1034B000202B0CD0110064460C4020003730092C22
:1034C00000D807380133E8540A090F29F0D80C93C3
:1034D0000A9B44460B9D984685E1002398460A9B2B
:1034E00045469C4600E00131AB005B195B001D18AE
:1034F0000878303D0300303B092BF4D963460A932A
:103500000023A8469A460D0001312E2800D06EE710
:1035100080200A9AC00002430A9230225242944606
:1035200068780B0084446246092A00D82EE12A28D4
:1035300000D13DE10D00013159E7DA46A146B3461D
:10354000B846C84503D801235B42434499464346E5
:103550004A4651460020D847200021B0F0BCBB4667
:10356000B246A946A046F0BD0B9B04CB9046002A6C
:1035700004DB68780B930D00013133E70A9A283891
:1035800002430A9242465242687890460D000B93DD
:10359000013127E7672800D1C7E1472800D114E2AD
:1035A000452800D116E20A9A0721049242460B9B55
:1035B0000392073352468B43190002920CC9300024
:1035C000009201930B9122003B005946FFF7A6FAA7
:1035D0000400E0E680239B0028E76878682800D193
:1035E0001BE280230A9A01311A430A9223E7687882
:1035F0006C2800D109E280230A9A5B001A430A92E0
:10360000013118E7462800D18AE10A9A072104927D
:1036100042460B9B0392073352468B43190002929A
:103620000CC93000009201930B9122003B005946D7
:10363000FFF7A6FC0400AEE6631C984622003B00A0
:1036400059462520B0474446A5E60B9B04330C930E
:10365000631C99460A9B9A0700D4E7E10B9B220062
:10366000187859463B00B04743464444012B00D8E4
:10367000B8E22B00B84625005F464C46994622002A
:103680004346013439002020B047AC42F7D12C002A
:10369000BB464D4647460C9B0B937CE645330010DA
:1036A0000C1C0020A46B0010346C0010E86B0010A0
:1036B00041900000DC4B28789B4600239946002867
:1036C00000D058E600243CE70B9B02CB12930B780A
:1036D0009C4618005346002B00D09CE0002812D0D6
:1036E00002235B420133994689444A460B008946CE
:1036F000110001E08B4203D05A780133002AF9D13E
:1037000049465B1A0C938023DB0099460A9A1340C2
:103710000B934B461A4204D00C9B534501D9534698
:103720000C93022399460A9A13400A934B4613427C
:1037300000D1B5E16346002B00D197E10B9B002B34
:1037400000D14CE1D1460B1B9A462B00A1444D46BB
:103750002200B9465F469B4609E04B463900541C9F
:10376000B0475346185D002800D158E12200954229
:10377000F3D15B46BB464F46A9461D004C460A9B0B
:10378000002B00D072E1129B0B9304E655460A9A77
:10379000A9004919490001330D181878303D01007E
:1037A00030390929F4D9AA460A921D00591C1EE68F
:1037B0000B9BA87804CB0235D143C9170A40924627
:1037C0000B93691C13E60A9B10211A008A43100010
:1037D00011310843814680201A00C00002401100C8
:1037E000034200D157E64B46082206935346059202
:1037F00008320392002204930C9B0292019318ABAF
:103800002200009359463B003000FFF773F843460F
:1038100004000B93BFE5002800D174E75346013B39
:1038200060E7622800D1DFE1582800D1ECE10A9975
:1038300080230A00DB001A4010000A00194200D160
:10384000BDE111239A430C920C9A802311009B0036
:1038500019408C461A4200D046E1802311005B00DB
:10386000194089460B9904310A911A4200D08FE21F
:1038700013005B0600D59EE113001B0600D426E36F
:103880000B9B00229B5ED9175A184A4092B2D90F5F
:103890000B91002B00D177E2100010AA944642460B
:1038A0001F23129252466344AA4614944D460400C4
:1038B000B946B0461F00139201E0202D0FD0200022
:1038C0000A21FEF7C5F801357E193031317020002C
:1038D0000A21FEF7BDF826000400092EEDD8129B40
:1038E00046469846139B4F46A94655469A46149C11
:1038F0000C9B069343460593534604930A23039374
:103900000B9B02934B46019318AB22000093594640
:103910003B003000FEF7EEFF0A9B04000B933AE5F4
:1039200020230A9A1A430A926FE680230A9A1B01FF
:103930001A430A9237E6782800D0AFE10A9880232C
:103940000200DB001A4011000200184200D1D0E250
:103950000D239A43100003330A93802302009B0037
:103960001A409446184200D0ACE1802302005B006C
:103970001A4091460B9A04320C92184200D04AE247
:10398000430600D493E20B9B1B780893002B00D0D6
:103990004BE110339843002900D146E100239946BA
:1039A00043460593534604930A9B069003930023D2
:1039B00002934B46019318AB2200009359463B00FB
:1039C0003000FEF797FF040065E680230A9A1B018A
:1039D0001A430A9220230A9A1A430A92E3E50B1B20
:1039E0009A460C9B99462B005D469B4622003B0065
:1039F0002900B04753460134185D0028F6D14B46E4
:103A00000C935B46AB461D00B9E6C0239B000A9AA7
:103A1000A8781A430A92E91C0DE5C023F7E75D4632
:103A2000BB464F46ABE6C046612800104346012B1B
:103A300000D8D1E0631E4344B9461D005F46A2464C
:103A40008B4622004B46013439002020B047AC425F
:103A5000F7D15D46BB464F46A14654460B9B4A46AE
:103A6000187859463B004444B04714E60C9BA146E5
:103A7000984500D887E64444E41A2B00B846250050
:103A80005F464C46994622004346013439002020C7
:103A9000B047AC42F7D12C00BB464D46474672E6D4
:103AA0000C98804500D81CE243461A19131A99460F
:103AB0002B004D46B9465F469B460C9122004B4673
:103AC000013439002020B047AC42F7D143460C996D
:103AD00001330C930B785D469C46BB464F466046CF
:103AE000002800D02AE64EE607220B9B07339343BB
:103AF000013294469C4462460B920CCBD90F0A913A
:103B0000110019435FD0D9171191109151400E91B6
:103B1000119959400F910E980F99109A119B801A84
:103B200099410E900F9110AA00239446424699465F
:103B3000129252461F336344B046AA464E4614942E
:103B4000B9460E9C0F9D1F00139201E0202E10D04D
:103B5000200029000A220023FDF7B8FF0136303289
:103B60002B00BA550D0022000400002BEED1092ACB
:103B7000ECD8129B4F46B14646469846139B0E948E
:103B80000F9555469A46149C0C9B06934346059305
:103B9000534604930A2303930A9B02934B460193D3
:103BA00018AB2200009359463B003000FEF7A2FEFE
:103BB0000400FFF7F0FB0B9B1B781A0067E610234D
:103BC0009A430C9240E6002399460028DCD100225B
:103BD00000230E920F93A6E70B9B220018785946FC
:103BE0003B00B0474C4656E50A9880230200DB00B4
:103BF0001A401100184200D15FE102000D239A43E0
:103C00000B3B10000A93A8E60A9880230200DB0011
:103C10001A4011000200184200D166E10D23202055
:103C20009A43033310430A9397E66123820600D533
:103C30004123DBB20A3B0B93434610A91F228C465B
:103C4000129353466244AA46149415974C468046F4
:103C5000B14617000A9E089D139308E03033DBB28B
:103C600001343B55B5420ED3202C0CD00500310059
:103C70002800FDF7EDFECBB20929EFD90B9A944647
:103C80006344DBB2ECE7129B40469846139B4E46DA
:103C90005546A1469A46149C159F81E66F2800D090
:103CA00037E10A990C230A009A43802310000A0086
:103CB000DB001A4011000A9A1A4200D021E10823C1
:103CC0000A934AE60B9AFA3BFF3B07329A430133C9
:103CD0009C46944463460B931368526808931343BD
:103CE00012921A1E05D100231032994690430029E2
:103CF00041D16122810600D54122D2B20A3A0C920A
:103D00004246002310A9139252468C4699461492BB
:103D10001F330A9A6344AA46159417964C46904658
:103D2000B946089E1F00129D16900AE03032D2B2AA
:103D3000002301343A55AB4211D0202C11D006009B
:103D40000D004246002330002900FDF7BFFED2B22D
:103D5000092AEBD90C9B9C466244D2B2E8E7B045F5
:103D6000EBD9139B55469846149B4F469A46A1465D
:103D70001698179E159C43460593534604930A9B39
:103D800006900393002308E7002800D0B0E584E5FF
:103D90000B9B1B68DA0F1100002B00D194E0DA179F
:103DA0009818504010AA914642461F23129252463C
:103DB0004B44A046AA4614970400B14665461F002E
:103DC0000B91139201E0202D0FD020000A21FDF766
:103DD0003FFE01357E193031317020000A21FDF798
:103DE00037FE26000400092EEDD8129B4446984663
:103DF0000B9BAC461900139B55464E469A46149FA2
:103E00000C9B0291069343460593534604930A2361
:103E10000393634677E50B9B1B680893002B03D144
:103E200010339843002937D16123820600D54123FE
:103E3000DBB20A3B0B93434610A989461F2212931B
:103E400053464A44AA46B1461494159764468046A0
:103E50001700089D0A9E139308E03033DBB201344B
:103E60003B55B5420ED3202C0CD005003100280064
:103E7000FDF7EEFDCBB20929EFD90B9A94466344C6
:103E8000DBB2ECE7129B40469846139B55464E46E4
:103E90009A46A446159F149C4346059353460493A3
:103EA0000A9B0690039300230293634682E5030670
:103EB00013D50B9B1B88089368E502000C239A43DB
:103EC0000A3B10000A9348E5002899D16AE70B9B4A
:103ED0001B68D9175A184A40D9E40B9B1B680893F2
:103EE00054E5030001330C93F9E520230A9A1A43A1
:103EF0000A920C230A9A00219A43043310000A9371
:103F00002BE50A9B0C9308230A930D230C989843E6
:103F100023E510230A9A9A430C9269280AD10A9938
:103F200080230A00DB001A4010000A00194200D169
:103F30008AE486E40A991C230A009A43802310002D
:103F40000A00DB001A4011000A9A1A4202D10A2321
:103F50000A9302E50A230A93D7E7C04600B585B065
:103F60000391012102900093034813004A4202A9E1
:103F7000FFF7E8F905B000BD0D2B001010B5094A98
:103F80000300146884B0002C08D001220091064878
:103F9000524203A9A047012004B010BD00F08AF9E5
:103FA0000020F9E70C1C0020FD2A001000BEFDE7F0
:103FB0007047C04610B5FFF7F9FFC04670B5FDF772
:103FC000FBFB074D074EB54209D20024013E761B8C
:103FD000B60808CD984723000134B342F9D170BD2B
:103FE000446800104C680010030010B50800110070
:103FF0001B68984710BDC046F0B5C64600B5437D66
:1040000007000D001600002B38D0002A2EDD0021FD
:104010006A1E90466A5C037D4C1C00200A2A0CD064
:10402000A64216D043461B5D21000D3B5A42534128
:104030006A5CDBB24C1C0A2AF2D1002BF0D181421F
:1040400017DC022110483B689847A64207D02000A1
:10405000E8E7864203DD311A3B6828189847AD1916
:10406000013D2B780D3B5A4253413B7580BCB8460D
:10407000F0BD091A3B6828189847E2E70368110069
:1040800028009847F2E7C046906D0010F8B50B681D
:104090000D005A1CCB180A601871802A00D0F8BD98
:1040A0000E4B1C68002C15D00D4E0F1D02E024692C
:1040B000002C0FD02368002BF9D03368002B01D0DF
:1040C000A342F4D1200039002A68FFF795FF246944
:1040D000002CEFD100232B60E1E7C0460018002040
:1040E00008180020F0B5DE4657464E464546E0B576
:1040F00085B017001C0006000D00FDF74BF90023EA
:10410000314A12184B41802109068B4202D3012209
:104110002E4B52422E4908008A4602F045FB019080
:104120006B1C03D1300002F0E1FA0500002C26D010
:10413000284B9846284B1C68002C15D0002F21D105
:10414000264F02E02469002C0ED02368002BF9D002
:104150003B68002B01D0A342F4D120002A0031009B
:10416000C0472469002CF0D1019B002B28D12800E6
:1041700005B0F0BCBB46B246A946A046F0BD184B00
:104180009846D7E7154B994602ABDF1D0A239B469D
:1041900002E02469002CE7D02368002BF9D04B46BD
:1041A0001B68002B01D0A342F3D12A00310020006C
:1041B000C0475B460122390020003B70C047E8E75A
:1041C000504602F011FBD2E740420F00FFFFFF7F95
:1041D00038100020F93F00100018002008180020B7
:1041E000E93F00100A4A1368002B05D10CE01A00C1
:1041F0001B691032002B07D09842F8D1002902D158
:1042000003691360016170470029FCD01060FAE770
:104210000018002010B500F07DFA10BDF0B5CE46B4
:10422000474680B583B06B460600DD1D2870FDF75C
:10423000B1F800231A4A12184B41802109068B421B
:1042400002D30122174B524217490800884602F058
:10425000ABFA164B81461C68002C14D0144F02E0B8
:104260002469002C0FD02368002BF9D03B68002B69
:1042700001D0A342F4D1200001222900FFF7BCFEA7
:104280002469002CEFD14B46002B05D1300003B040
:10429000C0BCB946B046F0BD404602F0A5FAF5E70D
:1042A00040420F00FFFFFF7F381000200018002061
:1042B0000818002070B5040002F018FA012301006C
:1042C000050001222000FFF70DFF084B1C68002CA1
:1042D00006D06368002B05D098472469002CF8D1DC
:1042E000280070BD2469002CF3D1F9E700180020E4
:1042F000F0B5CE46474680B5A3B004000D00FDF7EB
:1043000049F80023294A12184B41802109068B42A3
:1043100002D30122264B5242264F380002F044FAC3
:1043200000230600019322002B00234801A9FFF778
:1043300015FE019B8046002B14D1204B1C68002CDD
:1043400006D06368002B0BD098472469002CF8D165
:10435000002E25D1404623B0C0BCB946B046F0BDC2
:104360002469ECE7154B1D689946002D1CD0144CB0
:1043700002E02D69002D0FD02B68002BF9D02368A7
:10438000002B01D0AB42F4D12800019A02A9FFF71B
:1043900033FE2D69002DEFD14B4601951C68CEE709
:1043A000380002F021FAD5E70195D1E740420F002D
:1043B000FFFFFF7F381000208D4000100018002004
:1043C000081800200FB400B583B004A901C90191F9
:1043D000FFF78EFF03B008BC04B01847024B18600B
:1043E000024B19607047C046A0170020A417002098
:1043F00010B5024B1878FCF799F910BD5F1C00202E
:10440000154B70B51A68002A22D0EFF3108172B6EE
:1044100010680028FCD0BFF35F8F00200F4A59605E
:1044200010701B68BFF35F8F186081F31088002441
:1044300000250B4E3078FCF76DF9002804D10024DC
:1044400000252900200070BD3078FCF76FF9F8E7EF
:10445000FA240025A400ECE7181C0020601C0020B2
:104460005F1C002070B5040000200E0001F082FBEC
:10447000002836D0002001F093FB002831D0FCF753
:1044800089FF0023184A12184B41802109068B42EC
:1044900016D2164D280002F087F9002821D00020FE
:1044A00001F068FB00280FD101200021404200F0FC
:1044B00083FD03246442280002F096F9200070BDB9
:1044C00001220B4B5242E4E7002001F069FB002877
:1044D000EAD021003200002001F06CFB041EEAD17A
:1044E000E7E703246442E9E740420F00401C002054
:1044F000FFFFFF7F10B5FCF74DFF00230E4A121897
:104500004B41802109068B4202D301220B4B5242C0
:104510000B4C200002F048F900280CD001200021AB
:10452000404200F049FD002001F08EFB0028F5D14B
:10453000200002F059F910BD40420F00FFFFFF7F3D
:10454000401C0020F8B5DE46574680B505000C003B
:10455000FCF720FF0023374A12184B41802109063F
:104560008B4202D30122344B5242344908008A461E
:1045700002F01AF9002803D1C0BCBB46B246F8BD10
:10458000002001F0F7FA00284AD00026002C43DD75
:104590002B4B9B4614E0A919002001F08FFB07006C
:1045A00001200021404200F007FD002001F04CFBFB
:1045B000FCF7F0FE224BF61918605960B4422BDD6F
:1045C000002001F09BFBA71B0200B84200DD3A006F
:1045D000002AE0D101200021404200F0EDFC002043
:1045E00001F032FB002001F0C5FA002814D00020B1
:1045F00001F084FB0028E1D1FCF7CCFE5B460F0004
:104600001A685B68002184460E4812184B419F428D
:1046100002D8D3D19445D1D9504602F0E5F8ABE7A2
:1046200000200021064B18605960504602F0DCF86B
:10463000A2E7C04640420F00FFFFFF7F401C002062
:10464000C011002020A1070030B52B4C85B00021FF
:10465000200002F0A1F800281CD1284B1A68002A7B
:1046600016D0EFF3108172B610680028FCD0BFF3AB
:104670005F8F01242248596002781B68D2B204700F
:10468000BFF35F8F0020186081F31088002A17D0D5
:1046900005B030BD01200021404200F08DFC00201B
:1046A00001F07EFA0500200002F09EF8002DEFD008
:1046B000144B1B68002BEBD0134A10689847E7E7B0
:1046C000FCF740FC0400FCF765FEFA220023920090
:1046D00012184B41802109068B4202D301220B4B59
:1046E00052420121029100210191094920000091CB
:1046F000FCF72CFCCCE7C046401C0020181C002016
:10470000601C0020A0170020A4170020FFFFFF7FDF
:1047100001440010D02310B51B0684B01C68FCF7C0
:1047200011FCFCF70FFDA04202D0002004B010BD28
:104730002A4B002100201B7801F0A8FC28480368C0
:10474000002B47D00120FCF785F9FF23254C264993
:1047500020701840FCF704F820780121FBF7C8FF0F
:104760000520FBF7EBFF002826D1082200211F4877
:10477000FEF76AF8FCF7E6FB0400FCF70BFEFA22F2
:104780000023920012184B41802109068B4202D36C
:104790000122174B5242012102910021019115493A
:1047A00020000091FCF7D2FB0028BEDB124801215B
:1047B000FFF718FD0120B9E70120FBF767FF0B4B5E
:1047C00001001800FCF7B0F9002205200B49FBF7A7
:1047D000F1FFEBE7FCF78CF9B4E7C0468C700010F2
:1047E000401C00205F1C002049460010181C0020BF
:1047F000FFFFFF7F0144001000100020F143001074
:10480000004870474C6E001000487047F86D00106B
:1048100010B5040017480378002B20D0002C06D1D7
:10482000154B16484380063BFF3B038010BD052C0B
:1048300019D8134BA400E05812490123013804E0B1
:1048400001330A800231142B0FD0C25C002AF7D149
:10485000C022DBB25B00920008481343E5E7112158
:1048600000F01AF8DAE70020E0E7CA2303489B00CB
:10487000DBE7C046481C002009040000D8170020D0
:10488000E06D0010DA17002010B5024800F0D8F8EB
:1048900010BDC046301C002030B54B1E012900D190
:1048A000A7E0664A11780D092C0030349F2900D901
:1048B000A2E00470012B00D1BEE00F21147821404A
:1048C0000C003034092900D998E04470022B00D143
:1048D000B2E054782509290030319F2C00D990E0AE
:1048E0008170032B00D1A7E00F2121400C00303450
:1048F000092900D987E0C470042B00D19CE094788A
:104900002509290030319F2C00D97FE00171052B4A
:1049100000D191E00F2121400C003034092900D949
:1049200076E04471062B00D186E0D4782509290071
:1049300030319F2C00D96EE08171072B00D17BE0D4
:104940000F2121400C003034092966D8C471082B8E
:1049500000D171E014792509290030319F2C5FD8EE
:104960000172092B68D00F2121400C003034092935
:1049700058D844720A2B5FD0547925092900303168
:104980009F2C52D881720B2B56D00F2121400C0046
:10499000303409294BD8C4720C2B4DD09479250999
:1049A000290030319F2C00D9073101730D2B43D0E2
:1049B0000F2121400C003034092901D937310C0076
:1049C00044730E2B38D0D1790C09220030329F2944
:1049D00000D9073282730F2B2ED00F220A4011000C
:1049E0003731092A01D830321100C173102B23D07E
:1049F00010300023037030BD07345AE737310C0004
:104A000063E707316CE737310C0074E707317DE766
:104A100037310C0085E707318EE737310C0095E719
:104A200007319DE737310C00A3E70731AAE737319B
:104A30000C00C4720C2BB1D1C018DAE7301C002076
:104A400030B5002589B004000922002101A8009595
:104A5000FDF7FAFE0922002105A80495FDF7F4FEF2
:104A60006A464B236846137004A900230D2201F007
:104A7000C3FE1521082220006944FDF7EBFE09B0B2
:104A800030BDC0467047C0460022014B1A707047C7
:104A90005E1C00204B790020FF2B0BD18B79002B63
:104AA00008D1CB79012B05D1082A03D9024B8A788A
:104AB00009301A707047C0465E1C00200120704704
:104AC00010B5012901D0012010BD14495379107986
:104AD00009781B02034300209942F5D15378012B3A
:104AE00008D0022BF0D1002064220021FCF7ACFD9D
:104AF0000120E9E7D17890780902014380200A007B
:104B000040000240014206D0CA091A40480A032365
:104B10001940FCF721FE01204042F8E75E1C00200E
:104B200000487047086F001070B5050014000120A0
:104B3000012909D153780020012B05D1637912791D
:104B40001B021343072B00D070BD21002800024A2E
:104B50009F3300F0EFFEF7E7606E00100123037053
:104B6000004870472C6F00104B780A781B021343E3
:104B70008A7810B512041A43CB781B061343962289
:104B8000D200934200D010BD00220120110040420B
:104B9000FCF7E2FDF8B500F035F90C23194DFF22C2
:104BA000AB6705201849FBF705FE184C4022002191
:104BB0002000FDF749FE4027002301262121144A49
:104BC00066702783A260136063545F316184453946
:104BD0006354104A10496360E2602787A1620B604A
:104BE0006362E26201F0E8FD80239B052E64EB64C2
:104BF00090230A4A0120EA508022094B5202DA64CB
:104C0000F8BDC04600001150910400200C1800208F
:104C100084001050000110508000105010D001008E
:104C20000020115010B501210520FBF761FD10BDDA
:104C300010B500220021024800F004F910BDC04662
:104C40002C180020044B1970002904D080219023D7
:104C5000024A8902D15070475A1C0020002011508E
:104C60000B785B0602D14B78052B00D070478A7811
:104C7000014B1A60FAE7C04600001150F0B5C64675
:104C8000CB7800B59B079C0F2000012C56D08D7867
:104C90000A794B797F211B022940EE0913434A0010
:104CA00094462C4F92195201BA18957001257540FF
:104CB000557000255B055B0DD5701383D476CA0053
:104CC000012E2BD0244CA0468C0142443C19A260FA
:104CD000156000292BD0214AC900904641446160EB
:104CE0003F223F339343022830D032001C4C6244B1
:104CF00021685201BF181B4ACB18F9602360934208
:104D000026D8194A83064A401343802212061343C9
:104D10007A681360012080BCB846F0BD134CA046F1
:104D20008C0142443C19A2621560002908D100237D
:104D30007601BE1973600E4BF360EBE70020EAE7E3
:104D4000094AC900904641446162C9E75B00CCE76B
:104D5000FCF72CFD0C1800208400105004001050AB
:104D6000141C0020FF0F1050000010508000105045
:104D70000001105010B501F01FFD10BD10B57F20CF
:104D80000C0020404000E409110000191A00034BF8
:104D90004001C01800F056F8012010BD0C1800208A
:104DA0007F23180010B50840CA090B4203D10749F8
:104DB0007D3B9B1A8B66400080188022044B40018B
:104DC0000021C018120101F0FFFC10BD002011509D
:104DD0000C1800207F22130010B50B400A4200D1AE
:104DE00010BDC9095B005B1804485B01C0180023B3
:104DF00000220349C37001F0E7FCF1E70C18002022
:104E0000FFF7FFFF80220A4B520410B51A60094BCE
:104E100009491A6010000B689843FBD180220021D9
:104E200052010648FDF710FD0922054B5A6710BDD7
:104E300000E0004000F0004008C0004000001050BA
:104E400000001150002310B5C382013382828376A3
:104E50000161040001F080FC002804D0802190232F
:104E6000074A8902D150200001F06EFC002802D0D0
:104E70000123237710BD200001F076FCFAE7C0463D
:104E8000002011507047C0467047C0460020704750
:104E9000002070477047C0467047C0467047C04604
:104EA0007047C046024B5878431E9841C0B27047C5
:104EB00084150020024B18784007C00F7047C04689
:104EC00084150020F0B5D6464F464646C0B52F4B58
:104ED00007009A461B780E00FF2B01D0012041E00D
:104EE00000293ED0002154222948FDF7ADFC0022C4
:104EF000284C294B20001A70FBF7FAFD274B1C6049
:104F0000274C2000143CFBF701FE200001F0AAFB17
:104F1000244B254D1C60254B002B28D02800FFF783
:104F20001DFE234B18602B78224A00249146204A0C
:104F300090460EE043461B6862019B18002B10D080
:104F40005B68002B0DD0984701342B78E4B2A34264
:104F50000FD39C42EED3E31A5B014B445B68002BFA
:104F6000F1D10020E0BCBA46B146A846F0BD2B788E
:104F7000DAE75346310038001F70FFF70BFE0028B8
:104F8000EFD03800FFF74EFE0120EBE73410002091
:104F9000841500207C1500205B1C0020D815002003
:104FA0002C100020DC150020591C00205D4B001047
:104FB000D413002050700010F0B5DE4657464E4620
:104FC0004546E0B5CD4B91B003931B78FF2B00D144
:104FD0003FE1CB4BCB4E9B465F46CB4B0DAC029398
:104FE000CA4B019335686A69EFF3108172B6136892
:104FF000002BFCD0BFF35F8FA9612800210001F0D6
:105000006FF96A69AB69BFF35F8F0021116083F3A9
:105010001088002800D11CE16378082BE2D89B009F
:10502000FB589F466368002BDCD0A0689847D9E7FF
:105030007F222179B44D0A405300EB189846C809E5
:10504000804440460123303005799D430571057940
:1050500003339D430571002A00D101E14346AC4A68
:105060001B7D1278934200D3F1E0AA4A5B011568D8
:10507000ED18002D00D1ECE0A36862792078AD69CD
:10508000A847AFE7A44A1378002B00D1E1E01378DA
:10509000013BDBB213701378002BA3D101229A4D90
:1050A00001212B78042013432B703423EA5C8A43BC
:1050B000EA54EA5C8243EA540133EA5C8A43EA54E4
:1050C000EA5C8243EA54237800209B4600F092FC7D
:1050D000602223791A40602A0DD0402A00D1CEE008
:1050E000DB06DB0E012B00D11EE1022B00D1E0E03C
:1050F000002B00D1CFE020780021FFF751FE802166
:105100002078FFF74DFE6DE77F4D2B78DB0700D44D
:1051100068E7FFF7C5FE65E7029BDB78DB0700D495
:1051200060E76068FFF7B0FE5CE7774D2B78DB0740
:1051300000D457E728780007C00FFFF7AFFE51E70C
:105140002378724A99469346714B724A9846924622
:105150003A00002547461B78B0464E4691460EE081
:1051600053461B686A019B18002B00D17EE0DB6868
:105170003000984701353B78EDB2AB420CD39D42ED
:10518000EED3EB1A5B015B44DB68300098470135D6
:105190003B78EDB2AB42F2D25B4D542200212800A5
:1051A000FDF752FB1022FF21281DFDF74DFB2800C3
:1051B0002022FF21143046464F46FDF745FB00F004
:1051C0000FFC2379AB700DE72378524A9946504B78
:1051D000924698463200BB464E46002547469146C9
:1051E0001B780DE053461B686A019B18002B41D0C9
:1051F000DB683000984701353B78EDB2AB420ED307
:10520000AB42EFD8019AEB1A94465B016344DB682A
:105210003000984701353B78EDB2AB42F0D2029DA9
:10522000542200212800FDF70FFB1022FF213B48EC
:10523000FDF70AFB28002022FF2114304E465F466E
:10524000FDF702FB00F0CCFBFFF726FECAE6934217
:1052500013D011B0F0BCBB46B246A946A046F0BD83
:10526000A3686279207800F0D9FBBBE646464F463A
:10527000254DA4E74E465F46E4E7244DFCE628486A
:1052800000F0B8FB012158460EAAFFF74DFC00289C
:1052900000D0A7E62FE7202A00D146E1002A00D05F
:1052A00029E76379092B00D925E71E4A9B00D358CB
:1052B0009F467023217A0B4200D01CE7C809824622
:1052C0000F330B405B0098461148EB1853441B7D8D
:1052D0000078834257D300D041E10C4B9946002A15
:1052E00000D141E14B46586900F084FB4B46012157
:1052F00058465B690EAA9847C9E7C046341000209B
:10530000A86F0010DC1500208415002050700010DC
:10531000591C0020D41300205B1C0020881500209D
:10532000294B0010CC6F0010237A0F2B00D9E2E636
:10533000D44AEB181B791278934231D300D0DAE6C5
:10534000D14D686900F056FB012158466B690EAAE1
:105350009847002800D045E66022150023791D40BB
:105360001A4200D0C7E663790A3B012B00D9C2E696
:1053700000F040FB63790A2B00D179E158460EA971
:1053800000F0C2FA2EE6C1485B01006881469944EC
:10539000002A00D1E8E04B46002B00D1ABE6A1E7A4
:1053A000BA4A5B011568ED18002DCAD1A3E6A379AE
:1053B00099466B789945E1D06B78002B00D02AE1B3
:1053C0004B466B70002B00D122E148460138C0B239
:1053D000FFF71AFA002800D174E143780793022BF3
:1053E00000D06FE10122C179B1468B114911134000
:1053F0000A40302112015B0113432A78A8468A43F0
:1054000013432B7009239A4682445646BA46C37802
:1054100082781B021343C31805939A4B04939A4B4B
:1054200008939A4B09939A4B0A93059BB34200D871
:105430004BE1737801220B2B03D13378F278F61805
:105440007378042B00D03AE1059B00279B1B9BB28D
:105450000693049B0B921D7819E0099A7B0115684D
:10546000ED18002D00D12AE1310058462B69069A2B
:1054700098478446082803D9069A824200D30BE154
:10548000049B01371D78FFB2BD4200D217E1AF4245
:10549000E3D3089B7D1B9C466D016544E4E76B7874
:1054A0000CAA02321370584601230EA900F042FAEA
:1054B00098E5E3881A0AD8B20F2A00D91BE6754985
:1054C0009300CB589F460EA800F09AFA5846A1794F
:1054D000FFF7AEFB02222B7813432B7082E5E388A3
:1054E000012B00D007E608222B78584693430EA9DB
:1054F0002B7000F009FA75E5022029780CAB9A1C94
:105500008B068908DB0F01400B43138058460223AA
:105510000EA900F00FFA65E5E388012B00D0EAE55B
:1055200008222B7813432B7028E7237A0F2B00D9FE
:10553000E1E5544AEB181B791278934228D2534A7A
:105540005B011568ED18002D00D1D4E5686900F005
:1055500051FA012158466B690EAA984797E6002A2E
:1055600000D0C8E500239946627902201300049216
:105570008343012B11D0002A00D0BCE52B0043440B
:10558000534430331B790CAA9B07DB0F0232BCE774
:10559000934200D0AFE53C4DD8E7E388002B12D111
:1055A000039B1878049B012B23D0FFF7F9FB43469C
:1055B0000221EB18534430331A790A4301211A713E
:1055C0001A790A431A714B46002B00D10AE5586933
:1055D00000F010FA4B4601215B690EAA5846984725
:1055E000002000F007FA3523EB5CDB0700D5F9E477
:1055F000C4E6FFF7EFFB43460221EB185344303378
:105600001A798A431A711A7904998A431A71DAE766
:10561000FFF742FCB2E600215846FFF713FB58465D
:10562000FFF7A8FB00229246174AAB780592174A6B
:10563000049306922A00134B5546984692461B78CF
:105640000EE0069B6A011B689B18002B56D0DB6896
:1056500058469847434601351B78EDB2AB4239D3E3
:105660009D42EED3059AEB1A94465B016344EEE744
:105670000CAB9A1C584601230EA9157000F05AF97C
:10568000B0E4C046591C002050700010D413002014
:1056900098150020F46F00100B9A012A4DD0002AB3
:1056A0003CD00023B07804E00133DBB20F719342A9
:1056B00034D2C118C9B241440D79FF2DF4D04E4601
:1056C0004546574600236B7015E54E465746FFF793
:1056D000E1FB53E65546542200212800FDF7B4F8BB
:1056E0001022FF21281DFDF7AFF828002022FF21FE
:1056F0001430FDF7A9F8049BAB7061E65546FAE754
:10570000FFF70EFA021E00D1F5E4D37891781B0260
:105710000B4358460EA900F00DF9B8E565463B006D
:1057200031002A000A9800F057FDAC46049B6644FD
:105730001B78BB4200D378E6C1E7174B2969994231
:10574000AFD1079AADE7FFF7A1FB021E00D1D2E46B
:10575000584613780EA900F0EDF898E52189FFF777
:1057600057F8021EF4D1C6E4022A0FD0FFF790FBCF
:10577000021ECAD1BFE4FFF743F8021E00D1BAE40B
:10578000122358460EA900F0D5F880E5FFF73CF843
:10579000021EBAD1AFE4C046FD5D0010F8B5574611
:1057A0004E46DE4645460C00E0B516001F00002AB6
:1057B0003CD01F4B00259A46702399461D4B9B46B3
:1057C00017E05B462000997800F0C8FC00281FD045
:1057D00021004046FFF752FA002819D0A378DA09D1
:1057E000012A1CD00A9A013513702378E418B542B7
:1057F0001CDA6378052B0BD1E3789B079B0FBB4228
:1058000006D153464A461B789846A3781A42D8D008
:105810000020F0BCBB46B246A946A046F8BD0B9A94
:10582000013513702378E418B542E2DB0120F0E77C
:105830003410002084150020702270B5094B0C0034
:105840001D788B781A4201D0002070BD064B2000D5
:10585000997800F083FC0028F6D021002800FFF79B
:105860000DFAF2E734100020841500200B007F2091
:1058700010B51840DB0934334000044AC018044B0B
:105880001168C01800F026FC10BDC046D8150020D5
:10589000841500200B007F2010B51840DB0934333D
:1058A0004000044AC018044B1168C01800F03AFCCC
:1058B00010BDC046D81500208415002070B57F2487
:1058C0000F480C4064000419CD0964193034207964
:1058D000C00701D5002070BD012625790948354350
:1058E00000782571FFF74AFA0028F4D101222379C4
:1058F000934323712379033293432371EAE7C0462C
:10590000841500203410002070B5094C06000822D0
:1059100020000D00FCF79EFF00238021E360A360C0
:105920002B783000994300220023FFF7C7FF70BD9A
:1059300064150020F8B5CE4647469046264E80B501
:105940008146082230000D001F00FCF783FF43460C
:10595000B3600023F381EC79AB7924021C43231C50
:10596000BC4200D93B1C9FB2B381002C0ED0002F4B
:1059700018D04346002B2CD03B1C402F1BD89FB285
:1059800033787F2B1CD80021144A0FE080212B781C
:105990000022994348460023FFF790FFC0BCB94658
:1059A000B046F8BD7F230022317899433B0048463A
:1059B000FFF784FFF2E740239FB233787F2BE2D9D1
:1059C000064C3A0041462000FCF744FF80212200AB
:1059D000ECE70020E2E7C046641500202415002013
:1059E00010B5142200210248FCF72EFF10BDC0465E
:1059F00064150020014B18617047C04664150020F3
:105A000010B5054C010008222000FCF723FF0023FD
:105A1000A360E36010BDC0466415002070B5384C2B
:105A20001D0023780600DA09C9098A4210D0002037
:105A3000002D00D070BD21003000FFF711F923695F
:105A4000002B03D022000321300098470120F1E70A
:105A5000A0687F2B05D8002834D02A002949FCF7FC
:105A6000F9FEE289A1685219E38892B24919E281EC
:105A7000A160934214D03F2D12D9A389981A051C16
:105A800080B240282AD82078ADB27F2828D80021BB
:105A90009A4232D01B4A2B003000FFF70FFFC9E7B4
:105AA0002369002B05D022000221300098470028EE
:105AB0000AD0802123780022994330000023FFF789
:105AC000FDFEB7E70020B5E700213000FFF768F9D9
:105AD00030008021FFF764F90120ABE74025D2E7D1
